{
  "_format": "hh-sol-artifact-1",
  "contractName": "Note",
  "sourceName": "contracts/Note.sol",
  "abi": [
    {
      "inputs": [],
      "stateMutability": "nonpayable",
      "type": "constructor"
    },
    {
      "anonymous": false,
      "inputs": [
        {
          "indexed": false,
          "internalType": "uint256",
          "name": "id",
          "type": "uint256"
        },
        {
          "indexed": false,
          "internalType": "string",
          "name": "text",
          "type": "string"
        },
        {
          "indexed": false,
          "internalType": "string",
          "name": "createdAt",
          "type": "string"
        },
        {
          "indexed": false,
          "internalType": "uint256",
          "name": "index",
          "type": "uint256"
        }
      ],
      "name": "NoteCreated",
      "type": "event"
    },
    {
      "anonymous": false,
      "inputs": [
        {
          "indexed": false,
          "internalType": "uint256",
          "name": "id",
          "type": "uint256"
        }
      ],
      "name": "NoteDeleted",
      "type": "event"
    },
    {
      "anonymous": false,
      "inputs": [
        {
          "indexed": false,
          "internalType": "uint256",
          "name": "id",
          "type": "uint256"
        },
        {
          "indexed": false,
          "internalType": "bool",
          "name": "pinned",
          "type": "bool"
        }
      ],
      "name": "NotePinned",
      "type": "event"
    },
    {
      "anonymous": false,
      "inputs": [
        {
          "indexed": false,
          "internalType": "uint256",
          "name": "id",
          "type": "uint256"
        },
        {
          "indexed": false,
          "internalType": "string",
          "name": "text",
          "type": "string"
        },
        {
          "indexed": false,
          "internalType": "string",
          "name": "createdAt",
          "type": "string"
        },
        {
          "indexed": false,
          "internalType": "bool",
          "name": "deleted",
          "type": "bool"
        }
      ],
      "name": "NoteUpdated",
      "type": "event"
    },
    {
      "inputs": [
        {
          "internalType": "string",
          "name": "_text",
          "type": "string"
        },
        {
          "internalType": "string",
          "name": "_createdAt",
          "type": "string"
        }
      ],
      "name": "createNote",
      "outputs": [
        {
          "internalType": "uint256",
          "name": "id",
          "type": "uint256"
        },
        {
          "internalType": "string",
          "name": "text",
          "type": "string"
        },
        {
          "internalType": "string",
          "name": "createdAt",
          "type": "string"
        },
        {
          "internalType": "bool",
          "name": "deleted",
          "type": "bool"
        }
      ],
      "stateMutability": "nonpayable",
      "type": "function"
    },
    {
      "inputs": [],
      "name": "getAllNotes",
      "outputs": [
        {
          "components": [
            {
              "internalType": "uint256",
              "name": "id",
              "type": "uint256"
            },
            {
              "internalType": "string",
              "name": "text",
              "type": "string"
            },
            {
              "internalType": "string",
              "name": "createdAt",
              "type": "string"
            },
            {
              "internalType": "bool",
              "name": "deleted",
              "type": "bool"
            },
            {
              "internalType": "bool",
              "name": "pinned",
              "type": "bool"
            }
          ],
          "internalType": "struct Note.NoteItem[]",
          "name": "notes",
          "type": "tuple[]"
        }
      ],
      "stateMutability": "view",
      "type": "function"
    },
    {
      "inputs": [
        {
          "internalType": "uint256",
          "name": "_id",
          "type": "uint256"
        }
      ],
      "name": "getNote",
      "outputs": [
        {
          "internalType": "uint256",
          "name": "id",
          "type": "uint256"
        },
        {
          "internalType": "string",
          "name": "text",
          "type": "string"
        },
        {
          "internalType": "string",
          "name": "createdAt",
          "type": "string"
        },
        {
          "internalType": "bool",
          "name": "deleted",
          "type": "bool"
        }
      ],
      "stateMutability": "view",
      "type": "function"
    },
    {
      "inputs": [],
      "name": "getNoteCount",
      "outputs": [
        {
          "internalType": "uint256",
          "name": "count",
          "type": "uint256"
        }
      ],
      "stateMutability": "view",
      "type": "function"
    },
    {
      "inputs": [
        {
          "internalType": "uint256",
          "name": "_id",
          "type": "uint256"
        },
        {
          "internalType": "bool",
          "name": "_pinned",
          "type": "bool"
        }
      ],
      "name": "pinNote",
      "outputs": [],
      "stateMutability": "nonpayable",
      "type": "function"
    },
    {
      "inputs": [
        {
          "internalType": "uint256",
          "name": "_id",
          "type": "uint256"
        }
      ],
      "name": "removeNote",
      "outputs": [],
      "stateMutability": "nonpayable",
      "type": "function"
    },
    {
      "inputs": [
        {
          "internalType": "uint256",
          "name": "_id",
          "type": "uint256"
        },
        {
          "internalType": "string",
          "name": "_text",
          "type": "string"
        }
      ],
      "name": "updateNote",
      "outputs": [
        {
          "internalType": "uint256",
          "name": "id",
          "type": "uint256"
        },
        {
          "internalType": "string",
          "name": "text",
          "type": "string"
        },
        {
          "internalType": "string",
          "name": "createdAt",
          "type": "string"
        },
        {
          "internalType": "bool",
          "name": "deleted",
          "type": "bool"
        }
      ],
      "stateMutability": "nonpayable",
      "type": "function"
    }
  ],
  "bytecode": "0x608060405234801561001057600080fd5b50336000806101000a81548173ffffffffffffffffffffffffffffffffffffffff021916908373ffffffffffffffffffffffffffffffffffffffff160217905550611a40806100606000396000f3fe608060405234801561001057600080fd5b506004361061007d5760003560e01c8063a2f9c8791161005b578063a2f9c87914610106578063a965a94114610122578063adde0e7914610155578063de8f430c146101715761007d565b80632feaf8171461008257806341fb87fb146100b557806349781ef9146100d3575b600080fd5b61009c60048036038101906100979190611272565b61018f565b6040516100ac94939291906113a6565b60405180910390f35b6100bd6103ee565b6040516100ca91906113f9565b60405180910390f35b6100ed60048036038101906100e89190611440565b6103f8565b6040516100fd94939291906113a6565b60405180910390f35b610120600480360381019061011b919061149c565b610749565b005b61013c6004803603810190610137919061149c565b610a62565b60405161014c94939291906113a6565b60405180910390f35b61016f600480360381019061016a91906114f5565b610c21565b005b610179610eb2565b60405161018691906116dc565b60405180910390f35b600060608060008060009054906101000a900473ffffffffffffffffffffffffffffffffffffffff1673ffffffffffffffffffffffffffffffffffffffff163373ffffffffffffffffffffffffffffffffffffffff1614610225576040517f08c379a000000000000000000000000000000000000000000000000000000000815260040161021c90611770565b60405180910390fd5b6000865111610269576040517f08c379a0000000000000000000000000000000000000000000000000000000008152600401610260906117dc565b60405180910390fd5b60006040518060a001604052806001600254610285919061182b565b815260200188815260200187815260200160001515815260200160001515815250905060018190806001815401808255809150506001900390600052602060002090600402016000909190919091506000820151816000015560208201518160010190805190602001906102fa929190611075565b506040820151816002019080519060200190610317929190611075565b5060608201518160030160006101000a81548160ff02191690831515021790555060808201518160030160016101000a81548160ff02191690831515021790555050506002600081548092919061036d90611881565b91905055507e44539b28152aba19ab203e95f9fe889f150d1c385aeb989d7961ecc30f801481600001518260200151836040015160016002546103b091906118ca565b6040516103c094939291906118fe565b60405180910390a1806000015181602001518260400151836060015194509450945094505092959194509250565b6000600254905090565b600060608060008060009054906101000a900473ffffffffffffffffffffffffffffffffffffffff1673ffffffffffffffffffffffffffffffffffffffff163373ffffffffffffffffffffffffffffffffffffffff161461048e576040517f08c379a000000000000000000000000000000000000000000000000000000000815260040161048590611770565b60405180910390fd5b6000600187815481106104a4576104a3611951565b5b90600052602060002090600402016040518060a0016040529081600082015481526020016001820180546104d7906119af565b80601f0160208091040260200160405190810160405280929190818152602001828054610503906119af565b80156105505780601f1061052557610100808354040283529160200191610550565b820191906000526020600020905b81548152906001019060200180831161053357829003601f168201915b50505050508152602001600282018054610569906119af565b80601f0160208091040260200160405190810160405280929190818152602001828054610595906119af565b80156105e25780601f106105b7576101008083540402835291602001916105e2565b820191906000526020600020905b8154815290600101906020018083116105c557829003601f168201915b505050505081526020016003820160009054906101000a900460ff161515151581526020016003820160019054906101000a900460ff1615151515815250509050858160200181905250806001888154811061064157610640611951565b5b9060005260206000209060040201600082015181600001556020820151816001019080519060200190610675929190611075565b506040820151816002019080519060200190610692929190611075565b5060608201518160030160006101000a81548160ff02191690831515021790555060808201518160030160016101000a81548160ff0219169083151502179055509050507f7a9dc2c3a6d9fe75926230a798a6cd134c5660825dce47f36fab73b9dcbacc9f816000015182602001518360400151846060015160405161071b94939291906113a6565b60405180910390a1806000015181602001518260400151836060015194509450945094505092959194509250565b60008054906101000a900473ffffffffffffffffffffffffffffffffffffffff1673ffffffffffffffffffffffffffffffffffffffff163373ffffffffffffffffffffffffffffffffffffffff16146107d7576040517f08c379a00000000000000000000000000000000000000000000000000000000081526004016107ce90611770565b60405180910390fd5b6000600182815481106107ed576107ec611951565b5b90600052602060002090600402016040518060a001604052908160008201548152602001600182018054610820906119af565b80601f016020809104026020016040519081016040528092919081815260200182805461084c906119af565b80156108995780601f1061086e57610100808354040283529160200191610899565b820191906000526020600020905b81548152906001019060200180831161087c57829003601f168201915b505050505081526020016002820180546108b2906119af565b80601f01602080910402602001604051908101604052809291908181526020018280546108de906119af565b801561092b5780601f106109005761010080835404028352916020019161092b565b820191906000526020600020905b81548152906001019060200180831161090e57829003601f168201915b505050505081526020016003820160009054906101000a900460ff161515151581526020016003820160019054906101000a900460ff16151515158152505090506001816060019015159081151581525050806001838154811061099257610991611951565b5b90600052602060002090600402016000820151816000015560208201518160010190805190602001906109c6929190611075565b5060408201518160020190805190602001906109e3929190611075565b5060608201518160030160006101000a81548160ff02191690831515021790555060808201518160030160016101000a81548160ff0219169083151502179055509050507f89af6ba62ab348dc535a3187c267090f834c868a3820cd552a7110c3dc3eedb882604051610a5691906113f9565b60405180910390a15050565b600060608060008060018681548110610a7e57610a7d611951565b5b90600052602060002090600402016040518060a001604052908160008201548152602001600182018054610ab1906119af565b80601f0160208091040260200160405190810160405280929190818152602001828054610add906119af565b8015610b2a5780601f10610aff57610100808354040283529160200191610b2a565b820191906000526020600020905b815481529060010190602001808311610b0d57829003601f168201915b50505050508152602001600282018054610b43906119af565b80601f0160208091040260200160405190810160405280929190818152602001828054610b6f906119af565b8015610bbc5780601f10610b9157610100808354040283529160200191610bbc565b820191906000526020600020905b815481529060010190602001808311610b9f57829003601f168201915b505050505081526020016003820160009054906101000a900460ff161515151581526020016003820160019054906101000a900460ff161515151581525050905080600001518160200151826040015183606001519450945094509450509193509193565b600060018381548110610c3757610c36611951565b5b90600052602060002090600402016040518060a001604052908160008201548152602001600182018054610c6a906119af565b80601f0160208091040260200160405190810160405280929190818152602001828054610c96906119af565b8015610ce35780601f10610cb857610100808354040283529160200191610ce3565b820191906000526020600020905b815481529060010190602001808311610cc657829003601f168201915b50505050508152602001600282018054610cfc906119af565b80601f0160208091040260200160405190810160405280929190818152602001828054610d28906119af565b8015610d755780601f10610d4a57610100808354040283529160200191610d75565b820191906000526020600020905b815481529060010190602001808311610d5857829003601f168201915b505050505081526020016003820160009054906101000a900460ff161515151581526020016003820160019054906101000a900460ff1615151515815250509050818160800190151590811515815250508060018481548110610ddb57610dda611951565b5b9060005260206000209060040201600082015181600001556020820151816001019080519060200190610e0f929190611075565b506040820151816002019080519060200190610e2c929190611075565b5060608201518160030160006101000a81548160ff02191690831515021790555060808201518160030160016101000a81548160ff0219169083151502179055509050507f5ea9d66df66b9cf68239299577f092ccc389dcfdf26f033ecbb5452da9f63e11838260800151604051610ea59291906119e1565b60405180910390a1505050565b60606001805480602002602001604051908101604052809291908181526020016000905b8282101561106c57838290600052602060002090600402016040518060a001604052908160008201548152602001600182018054610f13906119af565b80601f0160208091040260200160405190810160405280929190818152602001828054610f3f906119af565b8015610f8c5780601f10610f6157610100808354040283529160200191610f8c565b820191906000526020600020905b815481529060010190602001808311610f6f57829003601f168201915b50505050508152602001600282018054610fa5906119af565b80601f0160208091040260200160405190810160405280929190818152602001828054610fd1906119af565b801561101e5780601f10610ff35761010080835404028352916020019161101e565b820191906000526020600020905b81548152906001019060200180831161100157829003601f168201915b505050505081526020016003820160009054906101000a900460ff161515151581526020016003820160019054906101000a900460ff16151515158152505081526020019060010190610ed6565b50505050905090565b828054611081906119af565b90600052602060002090601f0160209004810192826110a357600085556110ea565b82601f106110bc57805160ff19168380011785556110ea565b828001600101855582156110ea579182015b828111156110e95782518255916020019190600101906110ce565b5b5090506110f791906110fb565b5090565b5b808211156111145760008160009055506001016110fc565b5090565b6000604051905090565b600080fd5b600080fd5b600080fd5b600080fd5b6000601f19601f8301169050919050565b7f4e487b7100000000000000000000000000000000000000000000000000000000600052604160045260246000fd5b61117f82611136565b810181811067ffffffffffffffff8211171561119e5761119d611147565b5b80604052505050565b60006111b1611118565b90506111bd8282611176565b919050565b600067ffffffffffffffff8211156111dd576111dc611147565b5b6111e682611136565b9050602081019050919050565b82818337600083830152505050565b6000611215611210846111c2565b6111a7565b90508281526020810184848401111561123157611230611131565b5b61123c8482856111f3565b509392505050565b600082601f8301126112595761125861112c565b5b8135611269848260208601611202565b91505092915050565b6000806040838503121561128957611288611122565b5b600083013567ffffffffffffffff8111156112a7576112a6611127565b5b6112b385828601611244565b925050602083013567ffffffffffffffff8111156112d4576112d3611127565b5b6112e085828601611244565b9150509250929050565b6000819050919050565b6112fd816112ea565b82525050565b600081519050919050565b600082825260208201905092915050565b60005b8381101561133d578082015181840152602081019050611322565b8381111561134c576000848401525b50505050565b600061135d82611303565b611367818561130e565b935061137781856020860161131f565b61138081611136565b840191505092915050565b60008115159050919050565b6113a08161138b565b82525050565b60006080820190506113bb60008301876112f4565b81810360208301526113cd8186611352565b905081810360408301526113e18185611352565b90506113f06060830184611397565b95945050505050565b600060208201905061140e60008301846112f4565b92915050565b61141d816112ea565b811461142857600080fd5b50565b60008135905061143a81611414565b92915050565b6000806040838503121561145757611456611122565b5b60006114658582860161142b565b925050602083013567ffffffffffffffff81111561148657611485611127565b5b61149285828601611244565b9150509250929050565b6000602082840312156114b2576114b1611122565b5b60006114c08482850161142b565b91505092915050565b6114d28161138b565b81146114dd57600080fd5b50565b6000813590506114ef816114c9565b92915050565b6000806040838503121561150c5761150b611122565b5b600061151a8582860161142b565b925050602061152b858286016114e0565b9150509250929050565b600081519050919050565b600082825260208201905092915050565b6000819050602082019050919050565b61156a816112ea565b82525050565b600082825260208201905092915050565b600061158c82611303565b6115968185611570565b93506115a681856020860161131f565b6115af81611136565b840191505092915050565b6115c38161138b565b82525050565b600060a0830160008301516115e16000860182611561565b50602083015184820360208601526115f98282611581565b915050604083015184820360408601526116138282611581565b915050606083015161162860608601826115ba565b50608083015161163b60808601826115ba565b508091505092915050565b600061165283836115c9565b905092915050565b6000602082019050919050565b600061167282611535565b61167c8185611540565b93508360208202850161168e85611551565b8060005b858110156116ca57848403895281516116ab8582611646565b94506116b68361165a565b925060208a01995050600181019050611692565b50829750879550505050505092915050565b600060208201905081810360008301526116f68184611667565b905092915050565b7f4f6e6c7920746865206f776e657220697320617574686f72697a656420746f2060008201527f706572666f726d207468697320616374696f6e00000000000000000000000000602082015250565b600061175a60338361130e565b9150611765826116fe565b604082019050919050565b600060208201905081810360008301526117898161174d565b9050919050565b7f4e6f746520746578742069732072657175697265640000000000000000000000600082015250565b60006117c660158361130e565b91506117d182611790565b602082019050919050565b600060208201905081810360008301526117f5816117b9565b9050919050565b7f4e487b7100000000000000000000000000000000000000000000000000000000600052601160045260246000fd5b6000611836826112ea565b9150611841836112ea565b9250827fffffffffffffffffffffffffffffffffffffffffffffffffffffffffffffffff03821115611876576118756117fc565b5b828201905092915050565b600061188c826112ea565b91507fffffffffffffffffffffffffffffffffffffffffffffffffffffffffffffffff8214156118bf576118be6117fc565b5b600182019050919050565b60006118d5826112ea565b91506118e0836112ea565b9250828210156118f3576118f26117fc565b5b828203905092915050565b600060808201905061191360008301876112f4565b81810360208301526119258186611352565b905081810360408301526119398185611352565b905061194860608301846112f4565b95945050505050565b7f4e487b7100000000000000000000000000000000000000000000000000000000600052603260045260246000fd5b7f4e487b7100000000000000000000000000000000000000000000000000000000600052602260045260246000fd5b600060028204905060018216806119c757607f821691505b602082108114156119db576119da611980565b5b50919050565b60006040820190506119f660008301856112f4565b611a036020830184611397565b939250505056fea26469706673582212204a0a8a87b6bf26a1c51fad9d168f3930e46d4cc7ca877df293bf45b2771eea8c64736f6c634300080b0033",
  "linkReferences": {},
  "deployedLinkReferences": {}
}