{
  "contractName": "Note",
  "abi": [
    {
      "inputs": [],
      "stateMutability": "nonpayable",
      "type": "constructor"
    },
    {
      "anonymous": false,
      "inputs": [
        {
          "indexed": false,
          "internalType": "uint256",
          "name": "id",
          "type": "uint256"
        },
        {
          "indexed": false,
          "internalType": "string",
          "name": "text",
          "type": "string"
        },
        {
          "indexed": false,
          "internalType": "string",
          "name": "createdAt",
          "type": "string"
        },
        {
          "indexed": false,
          "internalType": "uint256",
          "name": "index",
          "type": "uint256"
        }
      ],
      "name": "NoteCreated",
      "type": "event"
    },
    {
      "anonymous": false,
      "inputs": [
        {
          "indexed": false,
          "internalType": "uint256",
          "name": "id",
          "type": "uint256"
        }
      ],
      "name": "NoteDeleted",
      "type": "event"
    },
    {
      "anonymous": false,
      "inputs": [
        {
          "indexed": false,
          "internalType": "uint256",
          "name": "id",
          "type": "uint256"
        },
        {
          "indexed": false,
          "internalType": "string",
          "name": "text",
          "type": "string"
        }
      ],
      "name": "NoteUpdated",
      "type": "event"
    },
    {
      "inputs": [
        {
          "internalType": "string",
          "name": "_text",
          "type": "string"
        },
        {
          "internalType": "string",
          "name": "_createdAt",
          "type": "string"
        }
      ],
      "name": "createNote",
      "outputs": [
        {
          "internalType": "uint256",
          "name": "id",
          "type": "uint256"
        },
        {
          "internalType": "string",
          "name": "text",
          "type": "string"
        },
        {
          "internalType": "string",
          "name": "createdAt",
          "type": "string"
        },
        {
          "internalType": "bool",
          "name": "deleted",
          "type": "bool"
        }
      ],
      "stateMutability": "nonpayable",
      "type": "function"
    },
    {
      "inputs": [
        {
          "internalType": "uint256",
          "name": "_id",
          "type": "uint256"
        },
        {
          "internalType": "string",
          "name": "_text",
          "type": "string"
        }
      ],
      "name": "updateNote",
      "outputs": [
        {
          "internalType": "uint256",
          "name": "id",
          "type": "uint256"
        },
        {
          "internalType": "string",
          "name": "text",
          "type": "string"
        },
        {
          "internalType": "string",
          "name": "createdAt",
          "type": "string"
        },
        {
          "internalType": "bool",
          "name": "deleted",
          "type": "bool"
        }
      ],
      "stateMutability": "nonpayable",
      "type": "function"
    },
    {
      "inputs": [
        {
          "internalType": "uint256",
          "name": "id",
          "type": "uint256"
        }
      ],
      "name": "removeNote",
      "outputs": [],
      "stateMutability": "nonpayable",
      "type": "function"
    },
    {
      "inputs": [
        {
          "internalType": "uint256",
          "name": "_id",
          "type": "uint256"
        }
      ],
      "name": "getNote",
      "outputs": [
        {
          "internalType": "uint256",
          "name": "id",
          "type": "uint256"
        },
        {
          "internalType": "string",
          "name": "text",
          "type": "string"
        },
        {
          "internalType": "string",
          "name": "createdAt",
          "type": "string"
        },
        {
          "internalType": "bool",
          "name": "deleted",
          "type": "bool"
        }
      ],
      "stateMutability": "view",
      "type": "function",
      "constant": true
    },
    {
      "inputs": [],
      "name": "getAllNotes",
      "outputs": [
        {
          "components": [
            {
              "internalType": "uint256",
              "name": "id",
              "type": "uint256"
            },
            {
              "internalType": "string",
              "name": "text",
              "type": "string"
            },
            {
              "internalType": "string",
              "name": "createdAt",
              "type": "string"
            },
            {
              "internalType": "bool",
              "name": "deleted",
              "type": "bool"
            }
          ],
          "internalType": "struct Note.NoteItem[]",
          "name": "notes",
          "type": "tuple[]"
        }
      ],
      "stateMutability": "view",
      "type": "function",
      "constant": true
    },
    {
      "inputs": [],
      "name": "getNoteCount",
      "outputs": [
        {
          "internalType": "uint256",
          "name": "count",
          "type": "uint256"
        }
      ],
      "stateMutability": "view",
      "type": "function",
      "constant": true
    }
  ],
  "bytecode": "0x608060405234801561001057600080fd5b50336000806101000a81548173ffffffffffffffffffffffffffffffffffffffff021916908373ffffffffffffffffffffffffffffffffffffffff160217905550611415806100606000396000f3fe608060405234801561001057600080fd5b50600436106100625760003560e01c80632feaf8171461006757806341fb87fb1461009a57806349781ef9146100b8578063a2f9c879146100eb578063a965a94114610107578063de8f430c1461013a575b600080fd5b610081600480360381019061007c9190610d15565b610158565b6040516100919493929190610e49565b60405180910390f35b6100a2610382565b6040516100af9190610e9c565b60405180910390f35b6100d260048036038101906100cd9190610ee3565b61038c565b6040516100e29493929190610e49565b60405180910390f35b61010560048036038101906101009190610f3f565b610606565b005b610121600480360381019061011c9190610f3f565b6107cc565b6040516101319493929190610e49565b60405180910390f35b610142610970565b60405161014f9190611100565b60405180910390f35b600060608060008060009054906101000a900473ffffffffffffffffffffffffffffffffffffffff1673ffffffffffffffffffffffffffffffffffffffff163373ffffffffffffffffffffffffffffffffffffffff16146101ee576040517f08c379a00000000000000000000000000000000000000000000000000000000081526004016101e590611194565b60405180910390fd5b6000865111610232576040517f08c379a000000000000000000000000000000000000000000000000000000000815260040161022990611200565b60405180910390fd5b600260008154809291906102459061124f565b919050555060006040518060800160405280600254815260200188815260200187815260200160001515815250905060018190806001815401808255809150506001900390600052602060002090600402016000909190919091506000820151816000015560208201518160010190805190602001906102c6929190610b18565b5060408201518160020190805190602001906102e3929190610b18565b5060608201518160030160006101000a81548160ff02191690831515021790555050507e44539b28152aba19ab203e95f9fe889f150d1c385aeb989d7961ecc30f801481600001518260200151836040015160016002546103449190611298565b60405161035494939291906112cc565b60405180910390a1806000015181602001518260400151836060015194509450945094505092959194509250565b6000600254905090565b6000606080600080600187815481106103a8576103a761131f565b5b9060005260206000209060040201604051806080016040529081600082015481526020016001820180546103db9061137d565b80601f01602080910402602001604051908101604052809291908181526020018280546104079061137d565b80156104545780601f1061042957610100808354040283529160200191610454565b820191906000526020600020905b81548152906001019060200180831161043757829003601f168201915b5050505050815260200160028201805461046d9061137d565b80601f01602080910402602001604051908101604052809291908181526020018280546104999061137d565b80156104e65780601f106104bb576101008083540402835291602001916104e6565b820191906000526020600020905b8154815290600101906020018083116104c957829003601f168201915b505050505081526020016003820160009054906101000a900460ff1615151515815250509050858160200181905250806001868154811061052a5761052961131f565b5b906000526020600020906004020160008201518160000155602082015181600101908051906020019061055e929190610b18565b50604082015181600201908051906020019061057b929190610b18565b5060608201518160030160006101000a81548160ff0219169083151502179055509050507ff4a9990466472e087350221001dbdf2f5f11c2bcb1019e44fc8449ff3999eb94816000015182602001516040516105d89291906113af565b60405180910390a1806000015181602001518260400151836060015194509450945094505092959194509250565b60006001828154811061061c5761061b61131f565b5b90600052602060002090600402016040518060800160405290816000820154815260200160018201805461064f9061137d565b80601f016020809104026020016040519081016040528092919081815260200182805461067b9061137d565b80156106c85780601f1061069d576101008083540402835291602001916106c8565b820191906000526020600020905b8154815290600101906020018083116106ab57829003601f168201915b505050505081526020016002820180546106e19061137d565b80601f016020809104026020016040519081016040528092919081815260200182805461070d9061137d565b801561075a5780601f1061072f5761010080835404028352916020019161075a565b820191906000526020600020905b81548152906001019060200180831161073d57829003601f168201915b505050505081526020016003820160009054906101000a900460ff161515151581525050905060018160600190151590811515815250507f89af6ba62ab348dc535a3187c267090f834c868a3820cd552a7110c3dc3eedb8826040516107c09190610e9c565b60405180910390a15050565b6000606080600080600186815481106107e8576107e761131f565b5b90600052602060002090600402016040518060800160405290816000820154815260200160018201805461081b9061137d565b80601f01602080910402602001604051908101604052809291908181526020018280546108479061137d565b80156108945780601f1061086957610100808354040283529160200191610894565b820191906000526020600020905b81548152906001019060200180831161087757829003601f168201915b505050505081526020016002820180546108ad9061137d565b80601f01602080910402602001604051908101604052809291908181526020018280546108d99061137d565b80156109265780601f106108fb57610100808354040283529160200191610926565b820191906000526020600020905b81548152906001019060200180831161090957829003601f168201915b505050505081526020016003820160009054906101000a900460ff161515151581525050905080600001518160200151826040015183606001519450945094509450509193509193565b60606001805480602002602001604051908101604052809291908181526020016000905b82821015610b0f5783829060005260206000209060040201604051806080016040529081600082015481526020016001820180546109d19061137d565b80601f01602080910402602001604051908101604052809291908181526020018280546109fd9061137d565b8015610a4a5780601f10610a1f57610100808354040283529160200191610a4a565b820191906000526020600020905b815481529060010190602001808311610a2d57829003601f168201915b50505050508152602001600282018054610a639061137d565b80601f0160208091040260200160405190810160405280929190818152602001828054610a8f9061137d565b8015610adc5780601f10610ab157610100808354040283529160200191610adc565b820191906000526020600020905b815481529060010190602001808311610abf57829003601f168201915b505050505081526020016003820160009054906101000a900460ff16151515158152505081526020019060010190610994565b50505050905090565b828054610b249061137d565b90600052602060002090601f016020900481019282610b465760008555610b8d565b82601f10610b5f57805160ff1916838001178555610b8d565b82800160010185558215610b8d579182015b82811115610b8c578251825591602001919060010190610b71565b5b509050610b9a9190610b9e565b5090565b5b80821115610bb7576000816000905550600101610b9f565b5090565b6000604051905090565b600080fd5b600080fd5b600080fd5b600080fd5b6000601f19601f8301169050919050565b7f4e487b7100000000000000000000000000000000000000000000000000000000600052604160045260246000fd5b610c2282610bd9565b810181811067ffffffffffffffff82111715610c4157610c40610bea565b5b80604052505050565b6000610c54610bbb565b9050610c608282610c19565b919050565b600067ffffffffffffffff821115610c8057610c7f610bea565b5b610c8982610bd9565b9050602081019050919050565b82818337600083830152505050565b6000610cb8610cb384610c65565b610c4a565b905082815260208101848484011115610cd457610cd3610bd4565b5b610cdf848285610c96565b509392505050565b600082601f830112610cfc57610cfb610bcf565b5b8135610d0c848260208601610ca5565b91505092915050565b60008060408385031215610d2c57610d2b610bc5565b5b600083013567ffffffffffffffff811115610d4a57610d49610bca565b5b610d5685828601610ce7565b925050602083013567ffffffffffffffff811115610d7757610d76610bca565b5b610d8385828601610ce7565b9150509250929050565b6000819050919050565b610da081610d8d565b82525050565b600081519050919050565b600082825260208201905092915050565b60005b83811015610de0578082015181840152602081019050610dc5565b83811115610def576000848401525b50505050565b6000610e0082610da6565b610e0a8185610db1565b9350610e1a818560208601610dc2565b610e2381610bd9565b840191505092915050565b60008115159050919050565b610e4381610e2e565b82525050565b6000608082019050610e5e6000830187610d97565b8181036020830152610e708186610df5565b90508181036040830152610e848185610df5565b9050610e936060830184610e3a565b95945050505050565b6000602082019050610eb16000830184610d97565b92915050565b610ec081610d8d565b8114610ecb57600080fd5b50565b600081359050610edd81610eb7565b92915050565b60008060408385031215610efa57610ef9610bc5565b5b6000610f0885828601610ece565b925050602083013567ffffffffffffffff811115610f2957610f28610bca565b5b610f3585828601610ce7565b9150509250929050565b600060208284031215610f5557610f54610bc5565b5b6000610f6384828501610ece565b91505092915050565b600081519050919050565b600082825260208201905092915050565b6000819050602082019050919050565b610fa181610d8d565b82525050565b600082825260208201905092915050565b6000610fc382610da6565b610fcd8185610fa7565b9350610fdd818560208601610dc2565b610fe681610bd9565b840191505092915050565b610ffa81610e2e565b82525050565b60006080830160008301516110186000860182610f98565b50602083015184820360208601526110308282610fb8565b9150506040830151848203604086015261104a8282610fb8565b915050606083015161105f6060860182610ff1565b508091505092915050565b60006110768383611000565b905092915050565b6000602082019050919050565b600061109682610f6c565b6110a08185610f77565b9350836020820285016110b285610f88565b8060005b858110156110ee57848403895281516110cf858261106a565b94506110da8361107e565b925060208a019950506001810190506110b6565b50829750879550505050505092915050565b6000602082019050818103600083015261111a818461108b565b905092915050565b7f4f6e6c7920746865206f776e657220697320617574686f72697a656420746f2060008201527f706572666f726d207468697320616374696f6e00000000000000000000000000602082015250565b600061117e603383610db1565b915061118982611122565b604082019050919050565b600060208201905081810360008301526111ad81611171565b9050919050565b7f4e6f746520746578742069732072657175697265640000000000000000000000600082015250565b60006111ea601583610db1565b91506111f5826111b4565b602082019050919050565b60006020820190508181036000830152611219816111dd565b9050919050565b7f4e487b7100000000000000000000000000000000000000000000000000000000600052601160045260246000fd5b600061125a82610d8d565b91507fffffffffffffffffffffffffffffffffffffffffffffffffffffffffffffffff82141561128d5761128c611220565b5b600182019050919050565b60006112a382610d8d565b91506112ae83610d8d565b9250828210156112c1576112c0611220565b5b828203905092915050565b60006080820190506112e16000830187610d97565b81810360208301526112f38186610df5565b905081810360408301526113078185610df5565b90506113166060830184610d97565b95945050505050565b7f4e487b7100000000000000000000000000000000000000000000000000000000600052603260045260246000fd5b7f4e487b7100000000000000000000000000000000000000000000000000000000600052602260045260246000fd5b6000600282049050600182168061139557607f821691505b602082108114156113a9576113a861134e565b5b50919050565b60006040820190506113c46000830185610d97565b81810360208301526113d68184610df5565b9050939250505056fea2646970667358221220155f312943c51ee96f78b14cbe156a4010133fc7afbd78aef466bbd0383468a564736f6c634300080b0033",
  "immutableReferences": {},
  "source": "//SPDX-License-Identifier:MIT\r\npragma solidity 0.8.11;\r\n\r\ncontract Note{\r\n    address owner;\r\n\r\n    struct NoteItem{\r\n        uint id;\r\n        string text;\r\n        string createdAt;\r\n        bool deleted;\r\n    }\r\n\r\n    NoteItem[] _notes;\r\n    uint _noteCount;\r\n\r\n    event NoteCreated(uint id, string text, string createdAt,uint index);\r\n\r\n    event NoteUpdated(uint id, string text);\r\n\r\n    event NoteDeleted(uint id);\r\n\r\n    modifier onlyOwner(){\r\n        require(msg.sender == owner,\"Only the owner is authorized to perform this action\");\r\n        _;\r\n    }\r\n    constructor(){\r\n        owner = msg.sender;\r\n    }\r\n\r\n    function createNote(string memory _text, string memory _createdAt)public onlyOwner() returns(uint id,\r\n        string memory text,\r\n        string memory createdAt,\r\n        bool deleted) {\r\n        require(bytes(_text).length > 0, \"Note text is required\");\r\n        _noteCount++;\r\n        NoteItem memory noteItem = NoteItem({\r\n            id: _noteCount,\r\n            text: _text,\r\n            createdAt: _createdAt,\r\n            deleted: false\r\n        });   \r\n        _notes.push(noteItem);\r\n        emit NoteCreated(noteItem.id, noteItem.text, noteItem.createdAt, _noteCount - 1);\r\n        return (\r\n            noteItem.id,\r\n            noteItem.text,\r\n            noteItem.createdAt,\r\n            noteItem.deleted            \r\n        );\r\n    }\r\n\r\n    function updateNote(uint _id, string memory _text) public returns(uint id,\r\n        string memory text,\r\n        string memory createdAt,\r\n        bool deleted) {        \r\n        NoteItem memory noteItem = _notes[_id];\r\n        noteItem.text = _text;\r\n        _notes[id] = noteItem;\r\n        emit NoteUpdated(\r\n            noteItem.id,\r\n            noteItem.text\r\n            );\r\n        return (\r\n            noteItem.id,\r\n            noteItem.text,\r\n            noteItem.createdAt,\r\n            noteItem.deleted\r\n        );\r\n    }\r\n\r\n    function removeNote(uint id) public {\r\n        NoteItem memory noteItem = _notes[id];\r\n        noteItem.deleted = true;\r\n        emit NoteDeleted(id);\r\n    }\r\n\r\n    function getNote(uint _id) public view returns(uint id,\r\n        string memory text,\r\n        string memory createdAt,\r\n        bool deleted){\r\n        NoteItem memory noteItem = _notes[_id];\r\n        return (\r\n            noteItem.id,\r\n            noteItem.text,\r\n            noteItem.createdAt,\r\n            noteItem.deleted\r\n        );\r\n    }\r\n    \r\n    function getAllNotes() public view returns(NoteItem[] memory notes){\r\n        return _notes;\r\n    }\r\n\r\n    function getNoteCount() public view returns(uint count){\r\n        return _noteCount;\r\n    }\r\n}",
  "sourcePath": "E:\\Genius\\Dev\\web\\blockchain-projects\\note-app\\contracts\\Note.sol",
  "compiler": {
    "name": "solc",
    "version": "0.8.11+commit.d7f03943.Emscripten.clang"
  },
  "schemaVersion": "3.4.4",
  "updatedAt": "2022-02-27T23:27:37.733Z",
  "networkType": "ethereum",
  "devdoc": {
    "kind": "dev",
    "methods": {},
    "version": 1
  },
  "userdoc": {
    "kind": "user",
    "methods": {},
    "version": 1
  }
}