{
  "contractName": "Note",
  "abi": [
    {
      "inputs": [],
      "stateMutability": "nonpayable",
      "type": "constructor"
    },
    {
      "anonymous": false,
      "inputs": [
        {
          "indexed": false,
          "internalType": "uint256",
          "name": "id",
          "type": "uint256"
        },
        {
          "indexed": false,
          "internalType": "string",
          "name": "text",
          "type": "string"
        },
        {
          "indexed": false,
          "internalType": "string",
          "name": "createdAt",
          "type": "string"
        },
        {
          "indexed": false,
          "internalType": "uint256",
          "name": "index",
          "type": "uint256"
        }
      ],
      "name": "NoteCreated",
      "type": "event"
    },
    {
      "anonymous": false,
      "inputs": [
        {
          "indexed": false,
          "internalType": "uint256",
          "name": "id",
          "type": "uint256"
        }
      ],
      "name": "NoteDeleted",
      "type": "event"
    },
    {
      "anonymous": false,
      "inputs": [
        {
          "indexed": false,
          "internalType": "uint256",
          "name": "id",
          "type": "uint256"
        },
        {
          "indexed": false,
          "internalType": "string",
          "name": "text",
          "type": "string"
        }
      ],
      "name": "NoteUpdated",
      "type": "event"
    },
    {
      "inputs": [
        {
          "internalType": "string",
          "name": "_text",
          "type": "string"
        },
        {
          "internalType": "string",
          "name": "_createdAt",
          "type": "string"
        }
      ],
      "name": "createNote",
      "outputs": [
        {
          "internalType": "uint256",
          "name": "id",
          "type": "uint256"
        },
        {
          "internalType": "string",
          "name": "text",
          "type": "string"
        },
        {
          "internalType": "string",
          "name": "createdAt",
          "type": "string"
        },
        {
          "internalType": "bool",
          "name": "deleted",
          "type": "bool"
        }
      ],
      "stateMutability": "nonpayable",
      "type": "function"
    },
    {
      "inputs": [
        {
          "internalType": "uint256",
          "name": "_id",
          "type": "uint256"
        },
        {
          "internalType": "string",
          "name": "_text",
          "type": "string"
        }
      ],
      "name": "updateNote",
      "outputs": [
        {
          "internalType": "uint256",
          "name": "id",
          "type": "uint256"
        },
        {
          "internalType": "string",
          "name": "text",
          "type": "string"
        },
        {
          "internalType": "string",
          "name": "createdAt",
          "type": "string"
        },
        {
          "internalType": "bool",
          "name": "deleted",
          "type": "bool"
        }
      ],
      "stateMutability": "nonpayable",
      "type": "function"
    },
    {
      "inputs": [
        {
          "internalType": "uint256",
          "name": "_id",
          "type": "uint256"
        }
      ],
      "name": "removeNote",
      "outputs": [],
      "stateMutability": "nonpayable",
      "type": "function"
    },
    {
      "inputs": [
        {
          "internalType": "uint256",
          "name": "_id",
          "type": "uint256"
        }
      ],
      "name": "getNote",
      "outputs": [
        {
          "internalType": "uint256",
          "name": "id",
          "type": "uint256"
        },
        {
          "internalType": "string",
          "name": "text",
          "type": "string"
        },
        {
          "internalType": "string",
          "name": "createdAt",
          "type": "string"
        },
        {
          "internalType": "bool",
          "name": "deleted",
          "type": "bool"
        }
      ],
      "stateMutability": "view",
      "type": "function",
      "constant": true
    },
    {
      "inputs": [],
      "name": "getAllNotes",
      "outputs": [
        {
          "components": [
            {
              "internalType": "uint256",
              "name": "id",
              "type": "uint256"
            },
            {
              "internalType": "string",
              "name": "text",
              "type": "string"
            },
            {
              "internalType": "string",
              "name": "createdAt",
              "type": "string"
            },
            {
              "internalType": "bool",
              "name": "deleted",
              "type": "bool"
            }
          ],
          "internalType": "struct Note.NoteItem[]",
          "name": "notes",
          "type": "tuple[]"
        }
      ],
      "stateMutability": "view",
      "type": "function",
      "constant": true
    },
    {
      "inputs": [],
      "name": "getNoteCount",
      "outputs": [
        {
          "internalType": "uint256",
          "name": "count",
          "type": "uint256"
        }
      ],
      "stateMutability": "view",
      "type": "function",
      "constant": true
    }
  ],
  "bytecode": "0x608060405234801561001057600080fd5b50336000803373ffffffffffffffffffffffffffffffffffffffff1673ffffffffffffffffffffffffffffffffffffffff16815260200190815260200160002060010160006101000a81548173ffffffffffffffffffffffffffffffffffffffff021916908373ffffffffffffffffffffffffffffffffffffffff16021790555061188a806100a06000396000f3fe608060405234801561001057600080fd5b50600436106100625760003560e01c80632feaf8171461006757806341fb87fb1461009a57806349781ef9146100b8578063a2f9c879146100eb578063a965a94114610107578063de8f430c1461013a575b600080fd5b610081600480360381019061007c919061118a565b610158565b60405161009194939291906112be565b60405180910390f35b6100a261051d565b6040516100af9190611311565b60405180910390f35b6100d260048036038101906100cd9190611358565b610527565b6040516100e294939291906112be565b60405180910390f35b610105600480360381019061010091906113b4565b6108ef565b005b610121600480360381019061011c91906113b4565b610bc3565b60405161013194939291906112be565b60405180910390f35b610142610da6565b60405161014f9190611575565b60405180910390f35b600060608060008060003373ffffffffffffffffffffffffffffffffffffffff1673ffffffffffffffffffffffffffffffffffffffff16815260200190815260200160002060010160009054906101000a900473ffffffffffffffffffffffffffffffffffffffff1673ffffffffffffffffffffffffffffffffffffffff163373ffffffffffffffffffffffffffffffffffffffff161461022e576040517f08c379a000000000000000000000000000000000000000000000000000000000815260040161022590611609565b60405180910390fd5b6000865111610272576040517f08c379a000000000000000000000000000000000000000000000000000000000815260040161026990611675565b60405180910390fd5b60016000815480929190610285906116c4565b919050555060006040518060800160405280600154815260200188815260200187815260200160001515815250905060016000803373ffffffffffffffffffffffffffffffffffffffff1673ffffffffffffffffffffffffffffffffffffffff1681526020019081526020016000206000018054905010156103d057806000803373ffffffffffffffffffffffffffffffffffffffff1673ffffffffffffffffffffffffffffffffffffffff1681526020019081526020016000206000016000815481106103565761035561170d565b5b906000526020600020906004020160008201518160000155602082015181600101908051906020019061038a929190610f8d565b5060408201518160020190805190602001906103a7929190610f8d565b5060608201518160030160006101000a81548160ff0219169083151502179055509050506104a2565b6000803373ffffffffffffffffffffffffffffffffffffffff1673ffffffffffffffffffffffffffffffffffffffff168152602001908152602001600020600001819080600181540180825580915050600190039060005260206000209060040201600090919091909150600082015181600001556020820151816001019080519060200190610461929190610f8d565b50604082015181600201908051906020019061047e929190610f8d565b5060608201518160030160006101000a81548160ff02191690831515021790555050505b7e44539b28152aba19ab203e95f9fe889f150d1c385aeb989d7961ecc30f8014816000015182602001518360400151600180546104df919061173c565b6040516104ef9493929190611770565b60405180910390a1806000015181602001518260400151836060015194509450945094505092959194509250565b6000600154905090565b600060608060008060003373ffffffffffffffffffffffffffffffffffffffff1673ffffffffffffffffffffffffffffffffffffffff16815260200190815260200160002060010160009054906101000a900473ffffffffffffffffffffffffffffffffffffffff1673ffffffffffffffffffffffffffffffffffffffff163373ffffffffffffffffffffffffffffffffffffffff16146105fd576040517f08c379a00000000000000000000000000000000000000000000000000000000081526004016105f490611609565b60405180910390fd5b60008060003373ffffffffffffffffffffffffffffffffffffffff1673ffffffffffffffffffffffffffffffffffffffff16815260200190815260200160002060000187815481106106525761065161170d565b5b906000526020600020906004020160405180608001604052908160008201548152602001600182018054610685906117f2565b80601f01602080910402602001604051908101604052809291908181526020018280546106b1906117f2565b80156106fe5780601f106106d3576101008083540402835291602001916106fe565b820191906000526020600020905b8154815290600101906020018083116106e157829003601f168201915b50505050508152602001600282018054610717906117f2565b80601f0160208091040260200160405190810160405280929190818152602001828054610743906117f2565b80156107905780601f1061076557610100808354040283529160200191610790565b820191906000526020600020905b81548152906001019060200180831161077357829003601f168201915b505050505081526020016003820160009054906101000a900460ff1615151515815250509050858160200181905250806000803373ffffffffffffffffffffffffffffffffffffffff1673ffffffffffffffffffffffffffffffffffffffff16815260200190815260200160002060000188815481106108135761081261170d565b5b9060005260206000209060040201600082015181600001556020820151816001019080519060200190610847929190610f8d565b506040820151816002019080519060200190610864929190610f8d565b5060608201518160030160006101000a81548160ff0219169083151502179055509050507ff4a9990466472e087350221001dbdf2f5f11c2bcb1019e44fc8449ff3999eb94816000015182602001516040516108c1929190611824565b60405180910390a1806000015181602001518260400151836060015194509450945094505092959194509250565b6000803373ffffffffffffffffffffffffffffffffffffffff1673ffffffffffffffffffffffffffffffffffffffff16815260200190815260200160002060010160009054906101000a900473ffffffffffffffffffffffffffffffffffffffff1673ffffffffffffffffffffffffffffffffffffffff163373ffffffffffffffffffffffffffffffffffffffff16146109be576040517f08c379a00000000000000000000000000000000000000000000000000000000081526004016109b590611609565b60405180910390fd5b60008060003373ffffffffffffffffffffffffffffffffffffffff1673ffffffffffffffffffffffffffffffffffffffff1681526020019081526020016000206000018281548110610a1357610a1261170d565b5b906000526020600020906004020160405180608001604052908160008201548152602001600182018054610a46906117f2565b80601f0160208091040260200160405190810160405280929190818152602001828054610a72906117f2565b8015610abf5780601f10610a9457610100808354040283529160200191610abf565b820191906000526020600020905b815481529060010190602001808311610aa257829003601f168201915b50505050508152602001600282018054610ad8906117f2565b80601f0160208091040260200160405190810160405280929190818152602001828054610b04906117f2565b8015610b515780601f10610b2657610100808354040283529160200191610b51565b820191906000526020600020905b815481529060010190602001808311610b3457829003601f168201915b505050505081526020016003820160009054906101000a900460ff161515151581525050905060018160600190151590811515815250507f89af6ba62ab348dc535a3187c267090f834c868a3820cd552a7110c3dc3eedb882604051610bb79190611311565b60405180910390a15050565b60006060806000806000803373ffffffffffffffffffffffffffffffffffffffff1673ffffffffffffffffffffffffffffffffffffffff1681526020019081526020016000206000018681548110610c1e57610c1d61170d565b5b906000526020600020906004020160405180608001604052908160008201548152602001600182018054610c51906117f2565b80601f0160208091040260200160405190810160405280929190818152602001828054610c7d906117f2565b8015610cca5780601f10610c9f57610100808354040283529160200191610cca565b820191906000526020600020905b815481529060010190602001808311610cad57829003601f168201915b50505050508152602001600282018054610ce3906117f2565b80601f0160208091040260200160405190810160405280929190818152602001828054610d0f906117f2565b8015610d5c5780601f10610d3157610100808354040283529160200191610d5c565b820191906000526020600020905b815481529060010190602001808311610d3f57829003601f168201915b505050505081526020016003820160009054906101000a900460ff161515151581525050905080600001518160200151826040015183606001519450945094509450509193509193565b60606000803373ffffffffffffffffffffffffffffffffffffffff1673ffffffffffffffffffffffffffffffffffffffff168152602001908152602001600020600001805480602002602001604051908101604052809291908181526020016000905b82821015610f84578382906000526020600020906004020160405180608001604052908160008201548152602001600182018054610e46906117f2565b80601f0160208091040260200160405190810160405280929190818152602001828054610e72906117f2565b8015610ebf5780601f10610e9457610100808354040283529160200191610ebf565b820191906000526020600020905b815481529060010190602001808311610ea257829003601f168201915b50505050508152602001600282018054610ed8906117f2565b80601f0160208091040260200160405190810160405280929190818152602001828054610f04906117f2565b8015610f515780601f10610f2657610100808354040283529160200191610f51565b820191906000526020600020905b815481529060010190602001808311610f3457829003601f168201915b505050505081526020016003820160009054906101000a900460ff16151515158152505081526020019060010190610e09565b50505050905090565b828054610f99906117f2565b90600052602060002090601f016020900481019282610fbb5760008555611002565b82601f10610fd457805160ff1916838001178555611002565b82800160010185558215611002579182015b82811115611001578251825591602001919060010190610fe6565b5b50905061100f9190611013565b5090565b5b8082111561102c576000816000905550600101611014565b5090565b6000604051905090565b600080fd5b600080fd5b600080fd5b600080fd5b6000601f19601f8301169050919050565b7f4e487b7100000000000000000000000000000000000000000000000000000000600052604160045260246000fd5b6110978261104e565b810181811067ffffffffffffffff821117156110b6576110b561105f565b5b80604052505050565b60006110c9611030565b90506110d5828261108e565b919050565b600067ffffffffffffffff8211156110f5576110f461105f565b5b6110fe8261104e565b9050602081019050919050565b82818337600083830152505050565b600061112d611128846110da565b6110bf565b90508281526020810184848401111561114957611148611049565b5b61115484828561110b565b509392505050565b600082601f83011261117157611170611044565b5b813561118184826020860161111a565b91505092915050565b600080604083850312156111a1576111a061103a565b5b600083013567ffffffffffffffff8111156111bf576111be61103f565b5b6111cb8582860161115c565b925050602083013567ffffffffffffffff8111156111ec576111eb61103f565b5b6111f88582860161115c565b9150509250929050565b6000819050919050565b61121581611202565b82525050565b600081519050919050565b600082825260208201905092915050565b60005b8381101561125557808201518184015260208101905061123a565b83811115611264576000848401525b50505050565b60006112758261121b565b61127f8185611226565b935061128f818560208601611237565b6112988161104e565b840191505092915050565b60008115159050919050565b6112b8816112a3565b82525050565b60006080820190506112d3600083018761120c565b81810360208301526112e5818661126a565b905081810360408301526112f9818561126a565b905061130860608301846112af565b95945050505050565b6000602082019050611326600083018461120c565b92915050565b61133581611202565b811461134057600080fd5b50565b6000813590506113528161132c565b92915050565b6000806040838503121561136f5761136e61103a565b5b600061137d85828601611343565b925050602083013567ffffffffffffffff81111561139e5761139d61103f565b5b6113aa8582860161115c565b9150509250929050565b6000602082840312156113ca576113c961103a565b5b60006113d884828501611343565b91505092915050565b600081519050919050565b600082825260208201905092915050565b6000819050602082019050919050565b61141681611202565b82525050565b600082825260208201905092915050565b60006114388261121b565b611442818561141c565b9350611452818560208601611237565b61145b8161104e565b840191505092915050565b61146f816112a3565b82525050565b600060808301600083015161148d600086018261140d565b50602083015184820360208601526114a5828261142d565b915050604083015184820360408601526114bf828261142d565b91505060608301516114d46060860182611466565b508091505092915050565b60006114eb8383611475565b905092915050565b6000602082019050919050565b600061150b826113e1565b61151581856113ec565b935083602082028501611527856113fd565b8060005b85811015611563578484038952815161154485826114df565b945061154f836114f3565b925060208a0199505060018101905061152b565b50829750879550505050505092915050565b6000602082019050818103600083015261158f8184611500565b905092915050565b7f4f6e6c7920746865206f776e657220697320617574686f72697a656420746f2060008201527f706572666f726d207468697320616374696f6e00000000000000000000000000602082015250565b60006115f3603383611226565b91506115fe82611597565b604082019050919050565b60006020820190508181036000830152611622816115e6565b9050919050565b7f4e6f746520746578742069732072657175697265640000000000000000000000600082015250565b600061165f601583611226565b915061166a82611629565b602082019050919050565b6000602082019050818103600083015261168e81611652565b9050919050565b7f4e487b7100000000000000000000000000000000000000000000000000000000600052601160045260246000fd5b60006116cf82611202565b91507fffffffffffffffffffffffffffffffffffffffffffffffffffffffffffffffff82141561170257611701611695565b5b600182019050919050565b7f4e487b7100000000000000000000000000000000000000000000000000000000600052603260045260246000fd5b600061174782611202565b915061175283611202565b92508282101561176557611764611695565b5b828203905092915050565b6000608082019050611785600083018761120c565b8181036020830152611797818661126a565b905081810360408301526117ab818561126a565b90506117ba606083018461120c565b95945050505050565b7f4e487b7100000000000000000000000000000000000000000000000000000000600052602260045260246000fd5b6000600282049050600182168061180a57607f821691505b6020821081141561181e5761181d6117c3565b5b50919050565b6000604082019050611839600083018561120c565b818103602083015261184b818461126a565b9050939250505056fea26469706673582212201e9edb32a83ea4544eb9a5daa6f1e32c03bee320d9f68f3c290c04df866e56ab64736f6c634300080b0033",
  "immutableReferences": {},
  "source": "//SPDX-License-Identifier:MIT\r\npragma solidity 0.8.11;\r\n\r\ncontract Note{\r\n    struct NoteItem{\r\n        uint id;\r\n        string text;\r\n        string createdAt;\r\n        bool deleted;\r\n    }\r\n    struct User{        \r\n        NoteItem[] _notes;\r\n        address _account;\r\n    }\r\n\r\n    mapping (address=>User) _users;\r\n\r\n    uint _noteCount;\r\n\r\n    event NoteCreated(uint id, string text, string createdAt,uint index);\r\n\r\n    event NoteUpdated(uint id, string text);\r\n\r\n    event NoteDeleted(uint id);\r\n\r\n    modifier onlyOwner(){\r\n        require(msg.sender == _users[msg.sender]._account,\"Only the owner is authorized to perform this action\");\r\n        _;\r\n    }\r\n    constructor(){\r\n        _users[msg.sender]._account = msg.sender;\r\n    }\r\n\r\n    function createNote(string memory _text, string memory _createdAt)public onlyOwner() returns(uint id,\r\n        string memory text,\r\n        string memory createdAt,\r\n        bool deleted) {\r\n        require(bytes(_text).length > 0, \"Note text is required\");\r\n        _noteCount++;\r\n        NoteItem memory noteItem = NoteItem({\r\n            id: _noteCount,\r\n            text: _text,\r\n            createdAt: _createdAt,\r\n            deleted: false\r\n        });\r\n        if(_users[msg.sender]._notes.length < 1){\r\n            _users[msg.sender]._notes[0] = noteItem;\r\n        }else{\r\n            _users[msg.sender]._notes.push(noteItem);\r\n        }\r\n        emit NoteCreated(noteItem.id, noteItem.text, noteItem.createdAt, _noteCount - 1);\r\n        return (\r\n            noteItem.id,\r\n            noteItem.text,\r\n            noteItem.createdAt,\r\n            noteItem.deleted            \r\n        );\r\n    }\r\n\r\n    function updateNote(uint _id, string memory _text) public onlyOwner() returns(uint id,\r\n        string memory text,\r\n        string memory createdAt,\r\n        bool deleted) {        \r\n        NoteItem memory noteItem = _users[msg.sender]._notes[_id];\r\n        noteItem.text = _text;\r\n        _users[msg.sender]._notes[_id] = noteItem;\r\n        emit NoteUpdated(\r\n            noteItem.id,\r\n            noteItem.text\r\n            );\r\n        return (\r\n            noteItem.id,\r\n            noteItem.text,\r\n            noteItem.createdAt,\r\n            noteItem.deleted\r\n        );\r\n    }\r\n\r\n    function removeNote(uint _id) public onlyOwner() {\r\n        NoteItem memory noteItem = _users[msg.sender]._notes[_id];\r\n        noteItem.deleted = true;\r\n        emit NoteDeleted(_id);\r\n    }\r\n\r\n    function getNote(uint _id) public view returns(uint id,\r\n        string memory text,\r\n        string memory createdAt,\r\n        bool deleted){\r\n        NoteItem memory noteItem = _users[msg.sender]._notes[_id];\r\n        return (\r\n            noteItem.id,\r\n            noteItem.text,\r\n            noteItem.createdAt,\r\n            noteItem.deleted\r\n        );\r\n    }\r\n    \r\n    function getAllNotes() public view returns(NoteItem[] memory notes){\r\n        return _users[msg.sender]._notes;\r\n    }\r\n\r\n    function getNoteCount() public view returns(uint count){\r\n        return _noteCount;\r\n    }\r\n}",
  "sourcePath": "E:\\Genius\\Dev\\web\\blockchain-projects\\note-app\\contracts\\Note.sol",
  "compiler": {
    "name": "solc",
    "version": "0.8.11+commit.d7f03943.Emscripten.clang"
  },
  "schemaVersion": "3.4.4",
  "updatedAt": "2022-03-01T17:26:33.016Z",
  "networkType": "ethereum",
  "devdoc": {
    "kind": "dev",
    "methods": {},
    "version": 1
  },
  "userdoc": {
    "kind": "user",
    "methods": {},
    "version": 1
  }
}